{
  "contractName": "VendingMachine",
  "abi": [
    {
      "inputs": [],
      "stateMutability": "nonpayable",
      "type": "constructor"
    },
    {
      "inputs": [
        {
          "internalType": "address",
          "name": "",
          "type": "address"
        }
      ],
      "name": "balances",
      "outputs": [
        {
          "internalType": "uint256",
          "name": "",
          "type": "uint256"
        }
      ],
      "stateMutability": "view",
      "type": "function",
      "constant": true
    },
    {
      "inputs": [],
      "name": "owner",
      "outputs": [
        {
          "internalType": "address",
          "name": "",
          "type": "address"
        }
      ],
      "stateMutability": "view",
      "type": "function",
      "constant": true
    },
    {
      "inputs": [],
      "name": "getBalance",
      "outputs": [
        {
          "internalType": "uint256",
          "name": "",
          "type": "uint256"
        }
      ],
      "stateMutability": "view",
      "type": "function",
      "constant": true
    },
    {
      "inputs": [
        {
          "internalType": "uint256",
          "name": "_amount",
          "type": "uint256"
        }
      ],
      "name": "restock",
      "outputs": [],
      "stateMutability": "nonpayable",
      "type": "function"
    },
    {
      "inputs": [
        {
          "internalType": "uint256",
          "name": "_amount",
          "type": "uint256"
        }
      ],
      "name": "purchase",
      "outputs": [],
      "stateMutability": "payable",
      "type": "function",
      "payable": true
    }
  ],
  "bytecode": "0x608060405234801561001057600080fd5b50336000806101000a81548173ffffffffffffffffffffffffffffffffffffffff021916908373ffffffffffffffffffffffffffffffffffffffff1602179055506064600160003073ffffffffffffffffffffffffffffffffffffffff1673ffffffffffffffffffffffffffffffffffffffff168152602001908152602001600020819055506108e5806100a56000396000f3fe60806040526004361061004a5760003560e01c806312065fe01461004f57806327e235e31461007a5780638da5cb5b146100b7578063c21a702a146100e2578063efef39a11461010b575b600080fd5b34801561005b57600080fd5b50610064610127565b6040516100719190610519565b60405180910390f35b34801561008657600080fd5b506100a1600480360381019061009c9190610597565b61016e565b6040516100ae9190610519565b60405180910390f35b3480156100c357600080fd5b506100cc610186565b6040516100d991906105d3565b60405180910390f35b3480156100ee57600080fd5b506101096004803603810190610104919061061a565b6101aa565b005b6101256004803603810190610120919061061a565b6102d0565b005b6000600160003073ffffffffffffffffffffffffffffffffffffffff1673ffffffffffffffffffffffffffffffffffffffff16815260200190815260200160002054905090565b60016020528060005260406000206000915090505481565b60008054906101000a900473ffffffffffffffffffffffffffffffffffffffff1681565b3373ffffffffffffffffffffffffffffffffffffffff1660008054906101000a900473ffffffffffffffffffffffffffffffffffffffff1673ffffffffffffffffffffffffffffffffffffffff1614610238576040517f08c379a000000000000000000000000000000000000000000000000000000000815260040161022f906106a4565b60405180910390fd5b61028a81600160003073ffffffffffffffffffffffffffffffffffffffff1673ffffffffffffffffffffffffffffffffffffffff168152602001908152602001600020546104d490919063ffffffff16565b600160003073ffffffffffffffffffffffffffffffffffffffff1673ffffffffffffffffffffffffffffffffffffffff1681526020019081526020016000208190555050565b600160003073ffffffffffffffffffffffffffffffffffffffff1673ffffffffffffffffffffffffffffffffffffffff16815260200190815260200160002054811115610352576040517f08c379a000000000000000000000000000000000000000000000000000000000815260040161034990610710565b60405180910390fd5b67016345785d8a000081610366919061075f565b34146103a7576040517f08c379a000000000000000000000000000000000000000000000000000000000815260040161039e90610805565b60405180910390fd5b6103f981600160003073ffffffffffffffffffffffffffffffffffffffff1673ffffffffffffffffffffffffffffffffffffffff168152602001908152602001600020546104ea90919063ffffffff16565b600160003073ffffffffffffffffffffffffffffffffffffffff1673ffffffffffffffffffffffffffffffffffffffff1681526020019081526020016000208190555061048e81600160003373ffffffffffffffffffffffffffffffffffffffff1673ffffffffffffffffffffffffffffffffffffffff168152602001908152602001600020546104d490919063ffffffff16565b600160003373ffffffffffffffffffffffffffffffffffffffff1673ffffffffffffffffffffffffffffffffffffffff1681526020019081526020016000208190555050565b600081836104e29190610825565b905092915050565b600081836104f8919061087b565b905092915050565b6000819050919050565b61051381610500565b82525050565b600060208201905061052e600083018461050a565b92915050565b600080fd5b600073ffffffffffffffffffffffffffffffffffffffff82169050919050565b600061056482610539565b9050919050565b61057481610559565b811461057f57600080fd5b50565b6000813590506105918161056b565b92915050565b6000602082840312156105ad576105ac610534565b5b60006105bb84828501610582565b91505092915050565b6105cd81610559565b82525050565b60006020820190506105e860008301846105c4565b92915050565b6105f781610500565b811461060257600080fd5b50565b600081359050610614816105ee565b92915050565b6000602082840312156106305761062f610534565b5b600061063e84828501610605565b91505092915050565b600082825260208201905092915050565b7f596f752063616e6e6f74206578656375746520746869732066756e6374696f6e600082015250565b600061068e602083610647565b915061069982610658565b602082019050919050565b600060208201905081810360008301526106bd81610681565b9050919050565b7f4e6f7420656e6f75676820646f6e75747320696e20746865206d616368696e65600082015250565b60006106fa602083610647565b9150610705826106c4565b602082019050919050565b60006020820190508181036000830152610729816106ed565b9050919050565b7f4e487b7100000000000000000000000000000000000000000000000000000000600052601160045260246000fd5b600061076a82610500565b915061077583610500565b9250817fffffffffffffffffffffffffffffffffffffffffffffffffffffffffffffffff04831182151516156107ae576107ad610730565b5b828202905092915050565b7f546865207072696365206f66206120646f6e757420697320302e312065746800600082015250565b60006107ef601f83610647565b91506107fa826107b9565b602082019050919050565b6000602082019050818103600083015261081e816107e2565b9050919050565b600061083082610500565b915061083b83610500565b9250827fffffffffffffffffffffffffffffffffffffffffffffffffffffffffffffffff038211156108705761086f610730565b5b828201905092915050565b600061088682610500565b915061089183610500565b9250828210156108a4576108a3610730565b5b82820390509291505056fea2646970667358221220ea76922dc52e15155759fb91848a4d6649080b9d208d56fe13e28d094b87a1b664736f6c634300080f0033",
  "immutableReferences": {},
  "source": " pragma solidity 0.8.15;\n\n import \"../node_modules/@openzeppelin/contracts/utils/math/SafeMath.sol\";\n\n\n contract VendingMachine {\n\n    using SafeMath for uint256;\n    address public owner;\n    mapping(address=>uint) public balances;\n\n    modifier onlyOwner {\n        require(owner==msg.sender, \"You cannot execute this function\");\n        _;\n    }\n\n    constructor () {\n        owner=msg.sender;\n        balances[address(this)]=100;                       //this points to the address of the contract\n\n    }\n\n\n    function getBalance () public view returns (uint) {\n        return balances[address(this)];                      // returns the baalance of the contract\n    }\n\n\n    function restock (uint _amount) external onlyOwner {\n        balances[address(this)]=balances[address(this)].add(_amount);\n    }\n\n\n    function purchase (uint _amount) external payable {                                       //important to remember to declare function that accept ether as payable! \n        require(_amount <= balances[address(this)], \"Not enough donuts in the machine\");\n        require(msg.value==_amount * 0.1 ether, \"The price of a donut is 0.1 eth\");                                             // I define the price of the donuts here.\n        balances[address(this)]=balances[address(this)].sub(_amount);\n        balances[msg.sender]=balances[msg.sender].add(_amount);\n\n\n    }\n\n\n\n\n\n\n }",
  "sourcePath": "/Users/petartodorov/Desktop/coding/solidity/Vending machine/contracts/Vendingmachine.sol",
  "compiler": {
    "name": "solc",
    "version": "0.8.15+commit.e14f2714.Emscripten.clang"
  },
  "schemaVersion": "3.4.8",
  "updatedAt": "2022-08-04T14:37:11.493Z",
  "networkType": "ethereum",
  "devdoc": {
    "kind": "dev",
    "methods": {},
    "version": 1
  },
  "userdoc": {
    "kind": "user",
    "methods": {},
    "version": 1
  }
}