{
  "contractName": "VendingMachine",
  "abi": [
    {
      "inputs": [],
      "stateMutability": "nonpayable",
      "type": "constructor"
    },
    {
      "inputs": [
        {
          "internalType": "address",
          "name": "",
          "type": "address"
        }
      ],
      "name": "balances",
      "outputs": [
        {
          "internalType": "uint256",
          "name": "",
          "type": "uint256"
        }
      ],
      "stateMutability": "view",
      "type": "function"
    },
    {
      "inputs": [],
      "name": "owner",
      "outputs": [
        {
          "internalType": "address",
          "name": "",
          "type": "address"
        }
      ],
      "stateMutability": "view",
      "type": "function"
    },
    {
      "inputs": [],
      "name": "getBalance",
      "outputs": [
        {
          "internalType": "uint256",
          "name": "",
          "type": "uint256"
        }
      ],
      "stateMutability": "view",
      "type": "function"
    },
    {
      "inputs": [
        {
          "internalType": "uint256",
          "name": "_amount",
          "type": "uint256"
        }
      ],
      "name": "restock",
      "outputs": [],
      "stateMutability": "nonpayable",
      "type": "function"
    },
    {
      "inputs": [
        {
          "internalType": "uint256",
          "name": "_amount",
          "type": "uint256"
        }
      ],
      "name": "purchase",
      "outputs": [],
      "stateMutability": "payable",
      "type": "function"
    }
  ],
  "bytecode": "0x608060405234801561001057600080fd5b50336000806101000a81548173ffffffffffffffffffffffffffffffffffffffff021916908373ffffffffffffffffffffffffffffffffffffffff1602179055506064600160003073ffffffffffffffffffffffffffffffffffffffff1673ffffffffffffffffffffffffffffffffffffffff168152602001908152602001600020819055506107fc806100a56000396000f3fe60806040526004361061004a5760003560e01c806312065fe01461004f57806327e235e31461007a5780638da5cb5b146100b7578063c21a702a146100e2578063efef39a11461010b575b600080fd5b34801561005b57600080fd5b50610064610127565b6040516100719190610430565b60405180910390f35b34801561008657600080fd5b506100a1600480360381019061009c91906104ae565b61016e565b6040516100ae9190610430565b60405180910390f35b3480156100c357600080fd5b506100cc610186565b6040516100d991906104ea565b60405180910390f35b3480156100ee57600080fd5b5061010960048036038101906101049190610531565b6101aa565b005b61012560048036038101906101209190610531565b610291565b005b6000600160003073ffffffffffffffffffffffffffffffffffffffff1673ffffffffffffffffffffffffffffffffffffffff16815260200190815260200160002054905090565b60016020528060005260406000206000915090505481565b60008054906101000a900473ffffffffffffffffffffffffffffffffffffffff1681565b3373ffffffffffffffffffffffffffffffffffffffff1660008054906101000a900473ffffffffffffffffffffffffffffffffffffffff1673ffffffffffffffffffffffffffffffffffffffff1614610238576040517f08c379a000000000000000000000000000000000000000000000000000000000815260040161022f906105bb565b60405180910390fd5b80600160003073ffffffffffffffffffffffffffffffffffffffff1673ffffffffffffffffffffffffffffffffffffffff1681526020019081526020016000206000828254610287919061060a565b9250508190555050565b600160003073ffffffffffffffffffffffffffffffffffffffff1673ffffffffffffffffffffffffffffffffffffffff16815260200190815260200160002054811115610313576040517f08c379a000000000000000000000000000000000000000000000000000000000815260040161030a906106ac565b60405180910390fd5b67016345785d8a00008161032791906106cc565b3414610368576040517f08c379a000000000000000000000000000000000000000000000000000000000815260040161035f90610772565b60405180910390fd5b80600160003073ffffffffffffffffffffffffffffffffffffffff1673ffffffffffffffffffffffffffffffffffffffff16815260200190815260200160002060008282546103b79190610792565b9250508190555080600160003373ffffffffffffffffffffffffffffffffffffffff1673ffffffffffffffffffffffffffffffffffffffff168152602001908152602001600020600082825461040d919061060a565b9250508190555050565b6000819050919050565b61042a81610417565b82525050565b60006020820190506104456000830184610421565b92915050565b600080fd5b600073ffffffffffffffffffffffffffffffffffffffff82169050919050565b600061047b82610450565b9050919050565b61048b81610470565b811461049657600080fd5b50565b6000813590506104a881610482565b92915050565b6000602082840312156104c4576104c361044b565b5b60006104d284828501610499565b91505092915050565b6104e481610470565b82525050565b60006020820190506104ff60008301846104db565b92915050565b61050e81610417565b811461051957600080fd5b50565b60008135905061052b81610505565b92915050565b6000602082840312156105475761054661044b565b5b60006105558482850161051c565b91505092915050565b600082825260208201905092915050565b7f596f752063616e6e6f74206578656375746520746869732066756e6374696f6e600082015250565b60006105a560208361055e565b91506105b08261056f565b602082019050919050565b600060208201905081810360008301526105d481610598565b9050919050565b7f4e487b7100000000000000000000000000000000000000000000000000000000600052601160045260246000fd5b600061061582610417565b915061062083610417565b9250827fffffffffffffffffffffffffffffffffffffffffffffffffffffffffffffffff03821115610655576106546105db565b5b828201905092915050565b7f4e6f7420656e6f75676820646f6e75747320696e20746865206d616368696e65600082015250565b600061069660208361055e565b91506106a182610660565b602082019050919050565b600060208201905081810360008301526106c581610689565b9050919050565b60006106d782610417565b91506106e283610417565b9250817fffffffffffffffffffffffffffffffffffffffffffffffffffffffffffffffff048311821515161561071b5761071a6105db565b5b828202905092915050565b7f546865207072696365206f66206120646f6e757420697320302e312065746800600082015250565b600061075c601f8361055e565b915061076782610726565b602082019050919050565b6000602082019050818103600083015261078b8161074f565b9050919050565b600061079d82610417565b91506107a883610417565b9250828210156107bb576107ba6105db565b5b82820390509291505056fea2646970667358221220e8350b07930552986ac0814bc3da145f6e2502bfae4afb486f6b7518c4a8527764736f6c634300080f0033",
  "immutableReferences": {},
  "source": " pragma solidity 0.8.15;\n\n\n contract VendingMachine {\n    address public owner;\n    mapping(address=>uint) public balances;\n\n    modifier onlyOwner {\n        require(owner==msg.sender, \"You cannot execute this function\");\n        _;\n    }\n\n    constructor () {\n        owner=msg.sender;\n        balances[address(this)]=100;                       //this points to the address of the contract\n\n    }\n\n\n    function getBalance () public view returns (uint) {\n        return balances[address(this)];                      // returns the baalance of the contract\n    }\n\n\n    function restock (uint _amount) external onlyOwner {\n        balances[address(this)]+=_amount;\n    }\n\n\n    function purchase (uint _amount) external payable {                                       //important to remember to declare function that accept ether as payable! \n        require(_amount <= balances[address(this)], \"Not enough donuts in the machine\");\n        require(msg.value==_amount * 0.1 ether, \"The price of a donut is 0.1 eth\");                                             // I define the price of the donuts here.\n        balances[address(this)]-= _amount;\n        balances[msg.sender]+=_amount;\n\n\n    }\n\n\n\n\n\n\n }",
  "sourcePath": "/Users/petartodorov/Desktop/coding/solidity/Vending machine/contracts/Vendingmachine.sol",
  "compiler": {
    "name": "solc",
    "version": "0.8.15+commit.e14f2714.Emscripten.clang"
  },
  "schemaVersion": "3.4.8",
  "updatedAt": "2022-08-04T13:52:44.988Z",
  "devdoc": {
    "kind": "dev",
    "methods": {},
    "version": 1
  },
  "userdoc": {
    "kind": "user",
    "methods": {},
    "version": 1
  }
}